:100000000C942A000C9434000C9434000C943400AA
:100010000C9434000C9434000C9434000C94340090
:100020000C9434000C9434000C9434000C94340080
:100030000C9434000C9434000C9434000C94340070
:100040000C9434000C9434000C9434000C94340060
:100050000C94340011241FBECFE5D8E0DEBFCDBF25
:100060000E9436000C94CE000C940000CF93DF93D6
:10007000CDB7DEB764970FB6F894DEBF0FBECDBF25
:100080000E94AB000E947900CE0101960E948F0071
:10009000CE0101960E94B800F7CF8A3020F52AE3FE
:1000A00030E0F901E81BF1096830F8F4413061F4FF
:1000B00081E090E002C0880F991F6A95E2F7908175
:1000C000892B808384E00895411111C081E090E084
:1000D00002C0880F991F6A95E2F780959081892365
:1000E000808384E0089582E0089581E0089583E0AC
:1000F000089541E066E083E00E944D008DB1806488
:100100008DB98DB18F778DB98FB78F778FBF8DB147
:100110008F7D8DB90895779BFECF8FB10895EF92B3
:10012000FF920F931F93CF938C01C0E07801EC0EE8
:10013000F11C0E948B00F7018083CF5FF801EC0F68
:10014000F11D319780818111F1CFCF911F910F91D6
:10015000FF90EF90089589E189B98AB188618AB9E1
:1001600080B58E6880BD08955D9BFECF8CB90895E3
:100170000F931F93CF938C01C0E003C00E94B40083
:10018000CF5FF801EC0FF11D80818111F7CF8DE079
:100190000E94B400CF911F910F910895F894FFCF62
:00000001FF
