:100000000C942A000C9434000C9434000C943400AA
:100010000C9434000C9434000C9434000C94340090
:100020000C9434000C9434000C9434000C94340080
:100030000C9434000C9434000C9434000C94340070
:100040000C9434000C9434000C9434000C94340060
:100050000C94340011241FBECFE5D8E0DEBFCDBF25
:100060000E9436000C94F5000C940000CF93DF93AF
:10007000CDB7DEB764970FB6F894DEBF0FBECDBF25
:100080000E94C5000E947C0044E1BE016F5F7F4F6B
:100090008DE00E94D200CE0101960E94AE00F4CF06
:1000A0008A3020F52AE330E0F901E81BF1096830D5
:1000B000F8F4413061F481E090E002C0880F991FAC
:1000C0006A95E2F79081892B808384E0089541113D
:1000D00011C081E090E002C0880F991F6A95E2F795
:1000E000809590818923808384E0089582E008953B
:1000F00081E0089583E0089541E067E083E00E9495
:10010000500041E065E083E00E94500041E064E07F
:1001100083E00E94500088B3806188BB8DB1806508
:100120008DB98DB181608DB98DB1877F8DB98DB15C
:100130008B7F8DB98DB18F778DB98FB78F778FBF4B
:100140008DB18F7D8DB9089598B39F7E98BB8FB97F
:10015000779BFECF88B3806188BB08950F931F9370
:10016000CF938C01C0E0F801EC0FF11D80810E945B
:10017000A400CF5FF801EC0FF11D31978081811150
:10018000F2CFCF911F910F91089589E189B98AB17A
:1001900088618AB980B58E6880BD08955F9BFECF67
:1001A0008CB10895DF92EF92FF920F931F93CF933C
:1001B000DF93D82E7B01D42FC0E00DC087010C0F38
:1001C000111D0E94CE00F80180838D1103C01082A2
:1001D000CD2F01C0CF5FCD1788F3DF91CF911F9155
:0E01E0000F91FF90EF90DF900895F894FFCFFD
:00000001FF
